:020000040000FA
:0600000058EF2BF0120086
:020006001200E6
:060008008BEF28F012004E
:02000E001200DE
:0400100000000000EC
:0600180019EF28F01200B0
:02001E000600DA
:1000200085570000AC00000028000000E14D0000F2
:10003000FF0000000100000010000000FB000000B5
:100040000400000064570000000F000021000000C1
:1000500038570000800000002C00000015570000F9
:08006000D400000023000000A1
:08006800D9CFE6FFE1CFD9FF7B
:10007000020EE126DE6ADD6A5CD8CCEC1EF060EC94
:100080001FF094D80001DF51FDE0DF6B57EC23F047
:100090009DD855D936DBDFEC0EF047EC0CF0010EA5
:1000A0008318836EB3EC1FF0EDD7D9CFE6FFE1CF15
:1000B000D9FF040EE126DE6ADD6ADECF14F0DDCF63
:1000C00015F0FD0EDBCF16F0FE0EDBCF17F015504E
:1000D0001718E8AE02D0173404D01650145C17502D
:1000E00015581DE2020EDB6A030EDB6A020EDBCF3F
:1000F00014F0030EDBCF15F0D890155004E6A00ED7
:10010000145C000E155806E2020EDB2A030EEEE325
:10011000DB2AECD7DF2A010ED0E3DB2ACED7040E90
:10012000E15C02E2E16AE552E16EE552E7CFD9FF18
:100130001200936A956A26EC1CF0836A11EC28F091
:10014000E80EE66E030EE66EB0DFE552E552570E9E
:10015000E66E120EE66EC2EC20F0E552E552AE0EEF
:10016000E66E240EE66E64EC21F0E552E552660E72
:10017000E66EB70EE66E25EC22F0E552E552010E72
:10018000E66EE66A03EC23F0E552E5520A0EE66EEF
:10019000E66A15EC23F0E552E552320EE66EE66AA9
:1001A00034EC23F0E552E55253EF23F000011E0E2C
:1001B000806F200E816F140E826F030E836F040E0A
:1001C000846F010E856F160E866F1200000188295C
:1001D000146E140E156E0E6E14C009F074EC2BF034
:1001E00005C088F00001055001E1802B3C0EE76E50
:1001F0008019E8AE02D0E73402D0E750805D02E318
:10020000806B812B3C0EE76E8119E8AE02D0E7349B
:1002100002D0E750815D02E3816B822B180EE76EFE
:100220008219E8AE02D0E73402D0E750825D03E3E2
:10023000826B842B832B070EE76E8319E8AE02D006
:10024000833503D0E750D880835502E2010E836FD7
:100250001C0EE76E8419E8AE02D0843503D0E75057
:10026000D88084550FE2020E855D0CE186C009F04E
:10027000040E0E6EF3EC28F0055004E00001852B0F
:10028000010E846F1D0E0001E76E8419E8AE02D0E6
:10029000843503D0E750D880845506E2020E855D90
:1002A00003E1852B010E846F1E0EE76E8419E8AE04
:1002B00002D0843503D0E750D88084550FE2040E75
:1002C000855D09E0060E855D06E0090E855D03E0AB
:1002D0000B0E855D03E1010E846F852B1F0EE76E0B
:1002E0008419E8AE02D0843503D0E750D880845515
:1002F00017E2850512E0030E855D0FE0050E855DB2
:100300000CE0070E855D09E0080E855D06E00A0E2B
:10031000855D03E00C0E855D03E1010E846F852B86
:100320000C0EE76E8519E8AE02D0853503D0E75094
:10033000D880855503E2862B010E856F12000001DF
:100340008A51040A01E1DCD1070A01E13CD1010A2A
:1003500001E1AAD0030A19E0060A06E0ABEC0AF0B4
:10036000000901E1CDD1C9D160EC1FF00001070EF9
:100370008E6FABEC0AF0000901E1C2D100018E6979
:10038000010E8A6F9C6B60EF1FF0ABEC0AF0000966
:1003900004E0E0D90001070E8A6FD00EE66E4D0E24
:1003A000E66EE66AE66A97EC20F0E552E552E55221
:1003B000E552BF0EE66E4D0EE66EE66A010EE66E83
:1003C00097EC20F0E552E552E552E5529CC009F069
:1003D000020E0E6EF3EC28F0055008E1BD0EE66E3D
:1003E0004D0EE66E0E0EE66EE66A08D0BD0EE66EA7
:1003F0004D0EE66E0E0EE66E010EE66E97EC20F0E8
:10040000E552E552E552E552FF0E00018E5D01E036
:1004100077D1100E8D5D01E173D1160E905D01E173
:100420006FD1D0EC0AF000090EE000019C2B9CC0BB
:1004300009F0020E0E6EF3EC28F0055004E1000105
:10044000020E8A6F9C6BBBEC0AF0000908E0000109
:100450009C079C3504E3010E9C6F030E8A6FE5EC4C
:100460000AF000090DE09CC009F0020E0E6EF3ECDC
:1004700028F0055005E160EC1FF00001080E8E6FBA
:10048000E5EC0AF0000901E13BD19CC009F0020E45
:100490000E6EF3EC28F00550010801E031D160EC5C
:1004A0001FF00001090E27D1ABEC0AF0000904E0AF
:1004B00051D90001070E8A6FAB0EE66E4D0EE66E47
:1004C000E66AE66A97EC20F0E552E552E552E5521D
:1004D000990EE66E4D0EE66EE66A010EE66E97EC3C
:1004E00020F0E552E552E552E5529CC009F0020EBB
:1004F0000E6EF3EC28F0055008E1BD0EE66E4D0ED1
:10050000E66E0E0EE66EE66A08D0BD0EE66E4D0E85
:10051000E66E0E0EE66E010EE66E97EC20F0E552EA
:10052000E552E552E552FF0E00018E5D01E0E8D094
:10053000100E8D5D01E1E4D0160E905D01E1E0D07A
:10054000D0EC0AF000090EE000019C2B9CC009F0E1
:10055000020E0E6EF3EC28F0055004E10001030ECC
:100560008A6F9C6BBBEC0AF0000907E000019C0756
:100570009C3503E3010E9C6F8A6FE5EC0AF00009DD
:1005800010E09CC009F0020E0E6EF3EC28F005504E
:1005900008E10001050E8A6F60EC1FF000010A0EF1
:1005A0008E6FE5EC0AF0000901E1AAD09CC009F0C9
:1005B000020E0E6EF3EC28F00550010801E0A0D009
:1005C00000010B0E98D0ABEC0AF0000904E0C2D891
:1005D0000001070E8A6F880EE66E4D0EE66EE66A23
:1005E000E66A97EC20F0E552E552E552E552770EC7
:1005F000E66E4D0EE66EE66A010EE66E97EC20F0B2
:10060000E552E552E552E5529CC009F0020E0E6E2D
:10061000F3EC28F0055008E1BD0EE66E4D0EE66ED7
:100620000E0EE66EE66A08D0BD0EE66E4D0EE66E64
:100630000E0EE66E010EE66E97EC20F0E552E552E6
:10064000E552E552FF0E00018E5D5AE1100E8D5D00
:1006500057E0160E905D54E0D0EC0AF000090EE071
:1006600000019C2B9CC009F0020E0E6EF3EC28F0EA
:10067000055004E10001010E8A6F9C6BBBEC0AF08F
:10068000000908E000019C079C3504E3010E9C6F03
:10069000020E8A6FE5EC0AF0000913E09CC009F035
:1006A000020E0E6EF3EC28F005500BE10001050E72
:1006B0008A6F870501E1876B60EC1FF00001170E60
:1006C0008E6FE5EC0AF000091BE09CC009F0020EF9
:1006D0000E6EF3EC28F00550010812E10001040E43
:1006E0008A6FA96B60EC1FF00001870501E1876B41
:1006F000010E916F180E8E6F12000001070E8A6FA7
:10070000120000018E51180A23E00F0A1DE01C0A96
:1007100017E0010A11E0030A0BE0010A05E00F0AE5
:1007200001E012007BEF05F060EC1FF0A6EF08F08F
:1007300060EC1FF0F0EF08F013D825D88AEF04F032
:1007400060EC1FF095EF0CF060EC1FF05FEF0FF026
:10075000CCEF0FF00001010E8B6F8C6B8F6B1200D2
:10076000640E0001F45D03E3F46B00019E2B3C0E6C
:1007700000019E5D02E39F2B9E6B3C0E9F5D02E39A
:100780009F6BA02B1200020E0001F55D0CE1680EBC
:10079000E66E4D0EE66EE66AE66A97EC20F0E552EC
:1007A000E552E552E5525C0EE66E4D0EE66E020E27
:1007B000E66E010EE66E97EC20F0E552E552E5524A
:1007C000E5520A0E0001F45D0FE2F4C014F0156A60
:1007D000166A176AF4C0E6FF15C0E6FF16C0E6FF0A
:1007E00017C0E6FF0C0E0ED0F4C014F0156A166A9E
:1007F000176AF4C0E6FF15C0E6FF16C0E6FF17C093
:10080000E6FF0B0EE66E010EE66E56EC20F0186E5B
:10081000060EE15E18500A0E00019E5D0FE29EC0BA
:1008200014F0156A166A176A9EC0E6FF15C0E6FF47
:1008300016C0E6FF17C0E6FF090E0ED09EC014F0EA
:10084000156A166A176A9EC0E6FF15C0E6FF16C055
:10085000E6FF17C0E6FF080EE66E010EE66E56ECE8
:1008600020F0186E060EE15E18500A0E00019F5D22
:100870000FE29FC014F0156A166A176A9FC0E6FF60
:1008800015C0E6FF16C0E6FF17C0E6FF060E0ED045
:100890009FC014F0156A166A176A9FC0E6FF15C05C
:1008A000E6FF16C0E6FF17C0E6FF050EE66E010E76
:1008B000E66E56EC20F0186E060EE15E18500A0E39
:1008C0000001A05D0FE2A0C014F0156A166A176A55
:1008D000A0C0E6FF15C0E6FF16C0E6FF17C0E6FFA2
:1008E000030E0ED0A0C014F0156A166A176AA0C0D5
:1008F000E6FF15C0E6FF16C0E6FF17C0E6FF020ED2
:10090000E66E010EE66E56EC20F0186E060EE15E05
:1009100018501200BBEC0AF0000903E00001010EC0
:10092000F56FBBEC0AF0000901E1C9D00001F50543
:1009300001E0C5D00001F65101E0BFD08FEC1FF0FF
:10094000570EE66E4D0EE66EE66AE66A97EC20F00C
:10095000E552E552E552E5525C0EE66E4D0EE66E4E
:10096000050EE66EE66A97EC20F0E552E552E55298
:10097000E5520A0E0001F45D0FE2F4C014F0156AAE
:10098000166A176AF4C0E6FF15C0E6FF16C0E6FF58
:1009900017C0E6FF0F0E0ED0F4C014F0156A166AE9
:1009A000176AF4C0E6FF15C0E6FF16C0E6FF17C0E1
:1009B000E6FF0E0EE66EE66A56EC20F0186E060EA6
:1009C000E15E18500A0E00019E5D0FE29EC014F019
:1009D000156A166A176A9EC0E6FF15C0E6FF16C0C4
:1009E000E6FF17C0E6FF0C0E0ED09EC014F0156A8D
:1009F000166A176A9EC0E6FF15C0E6FF16C0E6FF3E
:100A000017C0E6FF0B0EE66EE66A56EC20F0186E95
:100A1000060EE15E18500A0E00019F5D0FE29FC0B6
:100A200014F0156A166A176A9FC0E6FF15C0E6FF44
:100A300016C0E6FF17C0E6FF090E0ED09FC014F0E7
:100A4000156A166A176A9FC0E6FF15C0E6FF16C052
:100A5000E6FF17C0E6FF080EE66EE66A56EC20F0E9
:100A6000186E060EE15E18500A0E0001A05D0FE23E
:100A7000A0C014F0156A166A176AA0C0E6FF15C078
:100A8000E6FF16C0E6FF17C0E6FF060E0ED0A0C0B8
:100A900014F0156A166A176AA0C0E6FF15C0E6FFD3
:100AA00016C0E6FF17C0E6FF050EE66EE66A56ECD6
:100AB00020F0186E060EE15E18500001F66BD0ECC7
:100AC0000AF0000905E00001F56B0001010EF66F68
:100AD000E5EC0AF000090EE08FEC1FF00001F46B6A
:100AE00000019E6B9F6BA06B0001020EF56F000171
:100AF000010EF66F120000018351070A24E0010A7B
:100B00001EE0030A18E0010A12E0070A0CE0010ADD
:100B100006E0030A1CE1530EE66E4D0E1BD04F0E8D
:100B2000E66E4D0E17D04B0EE66E4D0E13D0470EEF
:100B3000E66E4D0E0FD0430EE66E4D0E0BD03F0EFF
:100B4000E66E4D0E07D03B0EE66E4D0E03D0370E0F
:100B5000E66E4D0EE66EE66AE66A97EC20F0E55228
:100B6000E552E552E55200019D5101E08CD00A0E9C
:100B7000186E0E6E82C009F0F3EC28F009C014F074
:100B8000156A166A176A14AE03D0156816681768D6
:100B900014C0E6FF15C0E6FF16C0E6FF17C0E6FF6B
:100BA000050EE66EE66A56EC20F0196E060EE15E62
:100BB000195082C009F00A0E0E6EF3EC28F005C041
:100BC00014F0156A166A176A14AE03D01568166811
:100BD000176814C0E6FF15C0E6FF16C0E6FF17C091
:100BE000E6FF060EE66EE66A56EC20F0186E060E7C
:100BF000E15E1850350EE66E4D0EE66E070EE66E9F
:100C0000E66A97EC20F0E552E552E552E5520A0E0D
:100C1000186E0E6E81C009F0F3EC28F009C014F0D4
:100C2000156A166A176A14AE03D015681668176835
:100C300014C0E6FF15C0E6FF16C0E6FF17C0E6FFCA
:100C4000080EE66EE66A56EC20F0196E060EE15EBE
:100C5000195081C009F00A0E0E6EF3EC28F005C0A1
:100C600014F0156A166A176A14AE03D01568166870
:100C7000176814C0E6FF15C0E6FF16C0E6FF17C0F0
:100C8000E6FF090E36D10C0EE76E8219E8AE02D0EF
:100C9000E73402D0E750825D47E20A0E186E0E6E0E
:100CA00082C009F0F3EC28F009C014F0156A166A46
:100CB000176A14AE03D015681668176814C0E6FFEB
:100CC00015C0E6FF16C0E6FF17C0E6FF040EE66E8D
:100CD000E66A56EC20F0196E060EE15E195082C0ED
:100CE00009F00A0E0E6EF3EC28F005C014F0156A38
:100CF000166A176A14AE03D015681668176814C010
:100D0000E6FF15C0E6FF16C0E6FF17C0E6FF050EBA
:100D1000E66EE66A56EC20F0186E060EE15E18509C
:100D2000320EE66E4D0E93D00C0E825D44E10A0E3B
:100D3000186E0E6E82C009F0F3EC28F009C014F0B2
:100D4000156A166A176A14AE03D015681668176814
:100D500014C0E6FF15C0E6FF16C0E6FF17C0E6FFA9
:100D6000040EE66EE66A56EC20F0196E060EE15EA1
:100D7000195082C009F00A0E0E6EF3EC28F005C07F
:100D800014F0156A166A176A14AE03D0156816684F
:100D9000176814C0E6FF15C0E6FF16C0E6FF17C0CF
:100DA000E6FF050EE66EE66A56EC20F0186E060EBB
:100DB000E15E185049D00C0E825D186E0A0E196E55
:100DC0000E6E18C009F0F3EC28F009C014F0156A93
:100DD000166A176A14AE03D015681668176814C02F
:100DE000E6FF15C0E6FF16C0E6FF17C0E6FF040EDB
:100DF000E66EE66A56EC20F01A6E060EE15E1A50B8
:100E00000C0E0001825D186E096E0A0E0E6EF3EC78
:100E100028F005C014F0156A166A176A14AE03D0DC
:100E200015681668176814C0E6FF15C0E6FF16C0FF
:100E3000E6FF17C0E6FF050EE66EE66A56EC20F008
:100E4000196E060EE15E19502F0EE66E4D0EE66E1F
:100E50000A0EE66EE66A97EC20F0E552E552E5529E
:100E6000E552350EE66E4D0EE66E060EE66EE66A4D
:100E700097EC20F0E552E552E552E5520A0E186E65
:100E80000E6E81C009F0F3EC28F009C014F0156A69
:100E9000166A176A14AE03D015681668176814C06E
:100EA000E6FF15C0E6FF16C0E6FF17C0E6FF070E17
:100EB000E66EE66A56EC20F0196E060EE15E1950F9
:100EC00081C009F00A0E0E6EF3EC28F005C014F094
:100ED000156A166A176A14AE03D015681668176883
:100EE00014C0E6FF15C0E6FF16C0E6FF17C0E6FF18
:100EF000080EE66EE66A56EC20F0186E060EE15E0D
:100F00001850000185510C0A42E0070A3CE0010A32
:100F100036E0030A30E0010A2AE00F0A24E0010A61
:100F20001EE0030A18E0010A12E0070A0CE0010AB9
:100F300006E0030A30E12B0EE66E4D0E2FD0270E91
:100F4000E66E4D0E2BD0230EE66E4D0E27D01F0EF3
:100F5000E66E4D0E23D01B0EE66E4D0E1FD0170E03
:100F6000E66E4D0E1BD0130EE66E4D0E17D00F0E13
:100F7000E66E4D0E13D00B0EE66E4D0E0FD0070E23
:100F8000E66E4D0E0BD0030EE66E4D0E07D0FF0E33
:100F9000E66E4C0E03D0370EE66E4D0EE66E020E78
:100FA000E66E010EE66E97EC20F0E552E552E55252
:100FB000E55200019651010A06E0010A11E1FB0E1B
:100FC000E66E4C0E03D0F70EE66E4C0EE66E0D0E7E
:100FD000E66EE66A97EC20F0E552E552E552E552FE
:100FE000F50EE66E4C0EE66E050EE66E010EE66E32
:100FF00097EC20F0E552E552E552E5520A0E186EE4
:101000000E6E84C009F0F3EC28F009C014F0156AE4
:10101000166A176A14AE03D015681668176814C0EC
:10102000E6FF15C0E6FF16C0E6FF17C0E6FF060E96
:10103000E66E010EE66E56EC20F0196E060EE15ECD
:10104000195084C009F00A0E0E6EF3EC28F005C0AA
:1010500014F0156A166A176A14AE03D0156816687C
:10106000176814C0E6FF15C0E6FF16C0E6FF17C0FC
:10107000E6FF070EE66E010EE66E56EC20F0186EE7
:10108000060EE15E1850F50EE66E4C0EE66E080E8A
:10109000E66E010EE66E97EC20F0E552E552E55261
:1010A000E552140EE66EE66AE66AE66A090EE66E38
:1010B000010EE66E56EC20F0146E060EE15E145042
:1010C0000A0E186E0E6E86C009F0F3EC28F009C007
:1010D00014F0156A166A176A14AE03D015681668FC
:1010E000176814C0E6FF15C0E6FF16C0E6FF17C07C
:1010F000E6FF0B0EE66E010EE66E56EC20F0196E62
:10110000060EE15E195086C009F00A0E0E6EF3EC71
:1011100028F005C014F0156A166A176A14AE03D0D9
:1011200015681668176814C0E6FF15C0E6FF16C0FC
:10113000E6FF17C0E6FF0C0EE66E010EE66E56ECFB
:1011400020F0186E060EE15E1850120000018B515F
:10115000060A3CE0030A32E0010A28E0070A1EE022
:10116000010A14E0030A01E01200C5DC3FDA18DAD4
:10117000000903E00001020E8B6FF5D900092FE092
:1011800060EC1FF00001070E8E6F1200B4DC6ADA0B
:1011900007DA000924E00001030E1FD0ACDC99DA65
:1011A000FFD900091CE00001040E17D0A4DCC4DA4A
:1011B000F7D9000914E00001050E0FD09CDCF1DA2C
:1011C000EFD900090CE00001060E07D094DC1EDB0D
:1011D000E7D9000904E00001010E8B6F1200120034
:1011E00000018C510F0A01E1AED0010A01E17CD06F
:1011F000030A43E0010A09E00C0A01E01200D4D816
:10120000CFD9000901E1CFD0CAD0CED800019329AF
:10121000146E140E156E0E6E14C009F074EC2BF0E3
:1012200005C093F00A0E0001055C11E2D6D9000951
:101230000EE0F20EE66E4C0EE66E020EE66E010E4B
:10124000E66E97EC20F0E552E552E552E55293D96F
:1012500000090CE000019429146E180E156E0E6E34
:1012600014C009F074EC2BF005C094F099D9000972
:1012700001E199D000010D0E94D096D80001932978
:10128000146E140E156E0E6E14C009F074EC2BF073
:1012900005C093F00A0E0001055C11E29ED9000919
:1012A0000EE0F20EE66E4C0EE66E050EE66E010ED8
:1012B000E66E97EC20F0E552E552E552E5525BD937
:1012C00000090CE000019529146E3C0E156E0E6E9F
:1012D00014C009F074EC2BF005C095F061D9000939
:1012E00062E000010E0E5DD05FD800019329146EFC
:1012F000140E156E0E6E14C009F074EC2BF005C0C0
:1013000093F00A0E0001055C11E267D900090EE0B6
:10131000EE0EE66E4C0EE66E090EE66E010EE66E01
:1013200097EC20F0E552E552E552E55224D9000948
:1013300004E000019629010B966F32D9000933E0D1
:1013400000010F0E2ED030D800019329146E140E18
:10135000156E0E6E14C009F074EC2BF005C093F0FE
:101360000A0E0001055C11E238D900090EE0EE0E0C
:10137000E66E4C0EE66E0D0EE66E010EE66E97EC16
:1013800020F0E552E552E552E552F5D8000904E0B7
:1013900000019729010B976F03D9000904E00001B0
:1013A0000C0E8C6F12001200DD0EE66E4C0EE66E17
:1013B000E66AE66A97EC20F0E552E552E552E5521E
:1013C000F20EE66E4C0EE66EE66A010EE66E97ECE5
:1013D00020F0E552E552E552E5520A0E0001945D17
:1013E0001DE2DB0EE66E4C0EE66E020EE66E010EA0
:1013F000E66E97EC20F0E552E552E552E55294C0D6
:1014000014F0156A166A176A94C0E6FF15C0E6FF65
:1014100016C0E6FF17C0E6FF030E0ED094C014F00E
:10142000156A166A176A94C0E6FF15C0E6FF16C073
:10143000E6FF17C0E6FF020EE66E010EE66E56EC02
:1014400020F0186E060EE15E1850350EE66E4D0E59
:10145000E66E040EE66E010EE66E97EC20F0E552A5
:10146000E552E552E5520A0E0001955D1DE2DB0EE4
:10147000E66E4C0EE66E050EE66E010EE66E97EC1D
:1014800020F0E552E552E552E55295C014F0156A98
:10149000166A176A95C0E6FF15C0E6FF16C0E6FF9C
:1014A00017C0E6FF060E0ED095C014F0156A166A36
:1014B000176A95C0E6FF15C0E6FF16C0E6FF17C025
:1014C000E6FF050EE66E010EE66E56EC20F0186E95
:1014D000060EE15E1850EE0EE66E4C0EE66E070E3E
:1014E000E66E010EE66E97EC20F0E552E552E5520D
:1014F000E55200019651010A06E0010A12E1FB0ED5
:10150000E66E4C0E03D0F70EE66E4C0EE66E090E3C
:10151000E66E010EE66E97EC20F0E552E552E552DC
:10152000E55200019751010A07E0010A01E01200AB
:10153000D80EE66E4C0E03D0D50EE66E4C0EE66E5F
:101540000D0EE66E010EE66E97EC20F0E552E552C8
:10155000E552E55212000001010EB41903E1B55144
:1015600001E1010C000C00010A0EB41903E1B551B0
:1015700001E1010C000C0001010EB61901E1B751A7
:101580000DE00A0EB65D000EB75909E3B6C014F0BF
:10159000156A010E14161450151001E1010C000C0F
:1015A0000001010EBE1901E1BF510DE00A0EBE5D42
:1015B000000EBF5909E3BEC014F0156A010E1416DF
:1015C0001450151001E1010C000C0001010EBC19B2
:1015D00003E1BD5101E1010C000C0001B651B7114E
:1015E00004E1BE51BF1101E1010C000C000193297F
:1015F000146E140E156E0E6E14C009F074EC2BF000
:1016000005C093F00A0E0001055C19E2E6DF00094F
:1016100016E000019D5106E1F20EE66E4C0EE66EFC
:10162000050E05D0F20EE66E4C0EE66E040EE66E6A
:10163000E66A97EC20F0E552E552E552E5529BDF71
:1016400000090FE000018229826F170EE76E8219F0
:10165000E8AE02D0823503D0E750D880825501E24F
:10166000826B120000019329146E140E156E0E6E1B
:1016700014C009F074EC2BF005C093F00A0E0001C1
:10168000055C19E2AADF000916E000019D5106E1A0
:10169000F20EE66E4C0EE66E080E05D0F20EE66E09
:1016A0004C0EE66E070EE66EE66A97EC20F0E55209
:1016B000E552E552E5525FDF00090AE000018129A9
:1016C000146E096E3C0E0E6EF3EC28F005C081F02E
:1016D000120000019329146E140E156E0E6E14C0C4
:1016E00009F074EC2BF005C093F00A0E0001055CC4
:1016F0000FE273DF00090CE0EE0EE66E4C0EE66EB4
:10170000E66AE66A97EC20F0E552E552E552E552CA
:1017100032DF000910E000018329836F070EE76EB6
:101720008319E8AE02D0833503D0E750D8808355C3
:1017300002E2010E836F120000019329146E140E51
:10174000156E0E6E14C009F074EC2BF005C093F00A
:101750000A0E0001055C11E240DF00090EE0F20E06
:10176000E66E4C0EE66E060EE66E010EE66E97EC29
:1017700020F0E552E552E552E552FDDE000910E0A9
:1017800000018429846F1F0EE76E8419E8AE02D031
:10179000843503D0E750D880845502E2010E846F6F
:1017A000120000019329146E140E156E0E6E14C0F3
:1017B00009F074EC2BF005C093F00A0E0001055CF3
:1017C00011E20BDF00090EE0EE0EE66E4C0EE66E47
:1017D000020EE66E010EE66E97EC20F0E552E55241
:1017E000E552E552C8DE000910E000018529856F49
:1017F0000C0EE76E8519E8AE02D0853503D0E750B0
:10180000D880855502E2010E856F120000019329F0
:10181000146E140E156E0E6E14C009F074EC2BF0DD
:1018200005C093F00A0E0001055C11E2D6DE000946
:101830000EE0D00EE66E4C0EE66E090EE66E010E60
:10184000E66E97EC20F0E552E552E552E55293DE64
:1018500000090FE000018629866F630EE76E861986
:10186000E8AE02D0863503D0E750D880865501E235
:10187000866B120000019451825D08E19551815DF3
:1018800005E1805103E1960501E1010C000C000126
:101890008D51100A0FE0010A01E01200EBDF000990
:1018A00003E00001010EA56F0001A5513DE0100EFF
:1018B0008D6F120060EC1FF0C30EE66E4C0EE66EEC
:1018C000E66AE66A97EC20F0E552E552E552E55209
:1018D0000001AA29146E140E156E0E6E14C009F0C4
:1018E00074EC2BF005C0AAF00A0E0001055C02E2C0
:1018F00060EC1FF00001A12B000EA223900ED880F7
:10190000A155010EA25503E360DE00090DE00001C0
:10191000A56BA16BA26B60EC1FF00001110E8D6F27
:101920008C6B975101E1966B120000018F51150AE3
:1019300001E1BBD0010A01E17AD0070A42E0010AC5
:101940000BE0120A01E01200EDD82ADE000901E1E5
:10195000E8D00001120EA7D0E5D800019329146E3B
:10196000140E156E0E6E14C009F074EC2BF005C049
:1019700093F00A0E0001055C10E22FDE00090DE075
:10198000F20EE66E4C0EE66E010EE66EE66E97EC1B
:1019900020F0E552E552E552E552EDDD00090AE09E
:1019A00000019829146E096E180E0E6EF3EC28F0E3
:1019B00005C098F0F5DD000901E1B3D00001130E78
:1019C00072D0B0D800019329146E140E156E0E6EED
:1019D00014C009F074EC2BF005C093F00A0E00015E
:1019E000055C11E2FADD00090EE0F20EE66E4C0E27
:1019F000E66E040EE66E010EE66E97EC20F0E55200
:101A0000E552E552E552B7DD00090AE000019929E7
:101A1000146E096E3C0E0E6EF3EC28F005C099F0C2
:101A2000BFDD000901E17DD00001140E3CD07AD861
:101A300000019329146E140E156E0E6E14C009F079
:101A400074EC2BF005C093F00A0E0001055C11E266
:101A5000C4DD00090EE0F20EE66E4C0EE66E070ED7
:101A6000E66E010EE66E97EC20F0E552E552E55287
:101A7000E55281DD00090AE000019A29146E096E21
:101A80003C0E0E6EF3EC28F005C09AF089DD0009DB
:101A900048E00001985104E1995102E19A5102E0B5
:101AA000150E01D0120E8F6F12003CD80001932941
:101AB000146E140E156E0E6E14C009F074EC2BF03B
:101AC00005C093F00A0E0001055C14E286DD0009F2
:101AD00011E00001A7510EE1BC0EE66E4C0EE66E61
:101AE000090EE66E010EE66E97EC20F0E552E55227
:101AF000E552E55240DD00090AE000019B29146E21
:101B0000096E020E0E6EF3EC28F005C09BF048DD66
:101B1000000907E000019B5104E1120E8F6FA76BD3
:101B2000120012000001A6510CE1AA0EE66E4C0E46
:101B3000E66EE66AE66A97EC20F0E552E552E55279
:101B4000E5520001A65101E039D1F50EE66E4C0ECA
:101B5000E66EE66A010EE66E97EC20F0E552E5527D
:101B6000E552E5520A0E0001E76E9819E8AE02D080
:101B7000E73402D0E750985D23E2DB0EE66E4C0EB0
:101B8000E66E010EE66EE66E97EC20F0E552E55249
:101B9000E552E55298C014F0156A166A176A14AE39
:101BA00003D015681668176814C0E6FF15C0E6FF75
:101BB00016C0E6FF17C0E6FF020EE66E010E14D057
:101BC00098C014F0156A166A176A14AE03D0156827
:101BD0001668176814C0E6FF15C0E6FF16C0E6FFDA
:101BE00017C0E6FF010EE66EE66E56EC20F0186EAA
:101BF000060EE15E1850350EE66E4D0EE66E030ED3
:101C0000E66E010EE66E97EC20F0E552E552E552E5
:101C1000E5520A0E0001E76E9919E8AE02D0E734EA
:101C200002D0E750995D22E2DB0EE66E4C0EE66EC6
:101C3000040EE66E010EE66E97EC20F0E552E552DA
:101C4000E552E55299C014F0156A166A176A14AE87
:101C500003D015681668176814C0E6FF15C0E6FFC4
:101C600016C0E6FF17C0E6FF050E13D099C014F0AA
:101C7000156A166A176A14AE03D0156816681768D5
:101C800014C0E6FF15C0E6FF16C0E6FF17C0E6FF6A
:101C9000040EE66E010EE66E56EC20F0186E060E8F
:101CA000E15E1850350EE66E4D0EE66E060EE66EDF
:101CB000010EE66E97EC20F0E552E552E552E55252
:101CC0000A0E0001E76E9A19E8AE02D0E73402D09E
:101CD000E7509A5D22E2DB0EE66E4C0EE66E070ED2
:101CE000E66E010EE66E97EC20F0E552E552E55205
:101CF000E5529AC014F0156A166A176A14AE03D03A
:101D000015681668176814C0E6FF15C0E6FF16C010
:101D1000E6FF17C0E6FF080E13D09AC014F0156A4C
:101D2000166A176A14AE03D015681668176814C0CF
:101D3000E6FF15C0E6FF16C0E6FF17C0E6FF070E78
:101D4000E66E010EE66E56EC20F0186E060EE15EB1
:101D50001850F20EE66E4C0EE66E090EE66E010E9F
:101D6000E66E97EC20F0E552E552E552E5520001AF
:101D70009B51010A12E0010A01E01200A40EE66E76
:101D80004C0EE66E0A0EE66E010EE66E97EC20F043
:101D9000E552E552E552E55212009E0EE66E4C0EFB
:101DA000E66E0A0EE66E010EE66E97EC20F0E55246
:101DB000E552E552E5520001010EA76F1200000145
:101DC0009051160A2AE0070A01E012008929146ED0
:101DD000140E156E0E6E14C009F074EC2BF005C0D5
:101DE00089F00001055003E19B5101E09A079A3503
:101DF00003E33B0E9A6F9907993503E33B0E996F06
:101E0000980752D8000903E00001010EA66F0001F7
:101E1000A60549E1160E906F12008FEC1FF000012D
:101E20009B6B8F0EE66E4C0EE66EE66AE66A97ECEA
:101E300020F0E552E552E552E552810EE66E4C0E79
:101E4000E66EE66A010EE66E97EC20F0E552E5528A
:101E5000E552E5520001AB29146E140E156E0E6E9C
:101E600014C009F074EC2BF005C0ABF00A0E0001B1
:101E7000055C02E260EC1FF00001A32B000EA4231E
:101E8000900ED880A355010EA45504E3E5EC0AF0AA
:101E9000000909E00001A66BA76B60EC1FF00001D0
:101EA0008F6B110E906F12000001985107E199514C
:101EB00005E19A5103E19B0501E1010C000C750E4F
:101EC000E66E4C0EE66EE66AE66A97EC20F0E552A6
:101ED000E552E552E552690EE66E4C0EE66EE66A94
:101EE000010EE66E97EC20F0E552E552E552E55220
:101EF000A8C009F0020E0E6EF3EC28F0055008E1C0
:101F0000BD0EE66E4D0EE66E0E0EE66EE66A08D06B
:101F1000BD0EE66E4D0EE66E0E0EE66E010EE66E20
:101F200097EC20F0E552E552E552E552D0EC0AF08C
:101F3000000902E00001A82BBBEC0AF0000902E056
:101F40000001A807E5EC0AF000090FE0A8C009F0BD
:101F5000020E0E6EF3EC28F0055007E10001870534
:101F600004E1010E9D6F070E8A6FE5EC0AF000098F
:101F70000FE0A8C009F0020E0E6EF3EC28F0055039
:101F8000010806E10001870503E19D6B070E8A6FDA
:101F90000001010E876F120000019151040A01E156
:101FA000AAD2070A01E1CED1010A01E1F3D0030A66
:101FB00006E0ABEC0AF0000901E17ED378D360ECD7
:101FC0001FF05F0EE66E4C0EE66EE66AE66A97EC70
:101FD00020F0E552E552E552E552550EE66E4C0E04
:101FE000E66EE66A010EE66E97EC20F0E552E552E9
:101FF000E552E552ABEC0AF0000903E00001070EE0
:102000008A6FA9C009F0020E0E6EF3EC28F005509D
:1020100016E1F50EE66E4C0EE66E0E0EE66E010E45
:10202000E66E97EC20F0E552E552E552E552BD0E22
:10203000E66E4D0EE66E0E0EE66EE66A15D0F50EF5
:10204000E66E4C0EE66E0E0EE66EE66A97EC20F03B
:10205000E552E552E552E552BD0EE66E4D0EE66ED6
:102060000E0EE66E010EE66E97EC20F0E552E5529C
:10207000E552E552D0EC0AF000090EE00001A92B70
:10208000A9C009F0020E0E6EF3EC28F0055004E131
:102090000001020E916FA96BBBEC0AF0000908E089
:1020A0000001A907A93504E3010EA96F040E916F81
:1020B000E5EC0AF0000934E0A9C009F0020E0E6E4A
:1020C000F3EC28F005502CE10001870529E1050E0D
:1020D000916F010E926F60EC1FF0040E00018225DB
:1020E000146E170EE76E1418E8AE02D0143403D045
:1020F000E750D880145404E2480EE66E4C0E03D02C
:102100003D0EE66E4C0EE66EE66AE66A97EC20F04F
:10211000E552E552E552E552040EE66ECEDAE5529E
:10212000E5EC0AF0000901E1BED2A9C009F0020EF7
:102130000E6EF3EC28F00550010801E0B4D2000166
:10214000870501E0B0D2050E916F010E926F60EC31
:102150001FF0020E00018225146E170EE76E141890
:10216000E8AE02D0143403D0E750D880145404E20F
:10217000300EE66E4C0E03D0250EE66E4C0EE66E6B
:10218000E66AE66A97EC20F0E552E552E552E55240
:10219000020E86D260EC1FF01B0EE66E4C0EE66E51
:1021A000E66AE66A97EC20F0E552E552E552E55220
:1021B000110EE66E4C0EE66EE66A010EE66E97ECC8
:1021C00020F0E552E552E552E552ABEC0AF0000989
:1021D00003E00001070E8A6FA9C009F0020E0E6E1F
:1021E000F3EC28F0055016E1F50EE66E4C0EE66EA7
:1021F0000E0EE66E010EE66E97EC20F0E552E5520B
:10220000E552E552BD0EE66E4D0EE66E0E0EE66E22
:10221000E66A15D0F50EE66E4C0EE66E0E0EE66E14
:10222000E66A97EC20F0E552E552E552E552BD0E24
:10223000E66E4D0EE66E0E0EE66E010EE66E97EC45
:1022400020F0E552E552E552E552D0EC0AF00009E3
:102250000EE00001A92BA9C009F0020E0E6EF3ECEE
:1022600028F0055004E10001030E916FA96BBBEC4F
:102270000AF0000907E00001A907A93503E3010EF0
:10228000A96F916FE5EC0AF000092BE0A9C009F0F5
:10229000020E0E6EF3EC28F0055023E100018705D5
:1022A00020E1050E916F020E926F60EC1FF0070E99
:1022B0000001825D146EE83404E3020EE66E4C0EFB
:1022C00003D0F70EE66E4B0EE66EE66AE66A97EC12
:1022D00020F0E552E552E552E552F90EE66EEDD9F1
:1022E000E552E5EC0AF0000901E1DDD1A9C009F0F1
:1022F000020E0E6EF3EC28F00550010801E0D3D178
:102300000001870501E0CFD1050E916F020E926F9B
:1023100060EC1FF0060E0001825D146EE83404E3E9
:10232000E80EE66E4B0E03D0DD0EE66E4B0EE66E4B
:10233000E66AE66A97EC20F0E552E552E552E5528E
:10234000FA0EAED160EC1FF0D40EE66E4B0EE66EC8
:10235000E66AE66A97EC20F0E552E552E552E5526E
:10236000CA0EE66E4B0EE66EE66A010EE66E97EC5E
:1023700020F0E552E552E552E552ABEC0AF00009D7
:1023800003E00001070E8A6FA9C009F0020E0E6E6D
:10239000F3EC28F0055016E1F50EE66E4C0EE66EF5
:1023A0000E0EE66E010EE66E97EC20F0E552E55259
:1023B000E552E552BD0EE66E4D0EE66E0E0EE66E71
:1023C000E66A15D0F50EE66E4C0EE66E0E0EE66E63
:1023D000E66A97EC20F0E552E552E552E552BD0E73
:1023E000E66E4D0EE66E0E0EE66E010EE66E97EC94
:1023F00020F0E552E552E552E552D0EC0AF0000932
:102400000EE00001A92BA9C009F0020E0E6EF3EC3C
:1024100028F0055004E10001040E916FA96BBBEC9C
:102420000AF0000908E00001A907A93504E3010E3C
:10243000A96F020E916FE5EC0AF000092BE0A9C02C
:1024400009F0020E0E6EF3EC28F0055023E10001B6
:10245000870520E1050E916F030E926F60EC1FF06F
:10246000050E0001825D146EE83404E3BB0EE66ED7
:102470004B0E03D0B00EE66E4B0EE66EE66AE66AD1
:1024800097EC20F0E552E552E552E552FB0EE66E80
:1024900014D9E552E5EC0AF0000901E104D1A9C024
:1024A00009F0020E0E6EF3EC28F00550010801E071
:1024B000FAD00001870501E0F6D0050E916F030EFA
:1024C000926F60EC1FF0030E0001825D146EE83421
:1024D00004E3A10EE66E4B0E03D0960EE66E4B0E95
:1024E000E66EE66AE66A97EC20F0E552E552E552C0
:1024F000E552FD0ED5D060EC1FF0870EE66E4B0E58
:10250000E66EE66AE66A97EC20F0E552E552E5529F
:10251000E5527A0EE66E4B0EE66EE66A010EE66E48
:1025200097EC20F0E552E552E552E552ABEC0AF0AB
:10253000000903E00001070E8A6FA9C009F0020E2E
:102540000E6EF3EC28F0055016E1F50EE66E4C0E1B
:10255000E66E0E0EE66E010EE66E97EC20F0E5528A
:10256000E552E552E552BD0EE66E4D0EE66E0E0EDC
:10257000E66EE66A15D0F50EE66E4C0EE66E0E0EB1
:10258000E66EE66A97EC20F0E552E552E552E55238
:10259000BD0EE66E4D0EE66E0E0EE66E010EE66E9A
:1025A00097EC20F0E552E552E552E552D0EC0AF006
:1025B00000090EE00001A92BA9C009F0020E0E6E61
:1025C000F3EC28F0055004E10001010E916FA96BB6
:1025D000BBEC0AF0000908E00001A907A93504E3F3
:1025E000010EA96F030E916FE5EC0AF000092BE0D4
:1025F000A9C009F0020E0E6EF3EC28F0055023E19D
:102600000001870520E1050E916F040E926F60ECCA
:102610001FF00F0E0001825D146EE83404E36A0EB1
:10262000E66E4B0E03D05E0EE66E4B0EE66EE66A6D
:10263000E66A97EC20F0E552E552E552E552F10EDC
:10264000E66E3BD8E552E5EC0AF000092CE0A9C0A3
:1026500009F0020E0E6EF3EC28F00550010823E19C
:102660000001870520E1050E916F040E926F60EC6A
:102670001FF00C0E0001825D146EE83404E34E0E70
:10268000E66E4B0E03D0420EE66E4B0EE66EE66A29
:10269000E66A97EC20F0E552E552E552E552F40E79
:1026A000E66E0BD8E5520001010E876F120092C052
:1026B00091F00001050E926F1200D9CFE6FFE1CF35
:1026C000D9FFE652FE0EDB5000018225DF6EDFCF20
:1026D00014F0170EE76E1418E8AE02D0143403D0CD
:1026E000E750D880145403E2180EDF5E06D0DFCF27
:1026F00014F0143402E3180EDF269D5101E092D04D
:102700000A0E186E0E6EDFCF09F0F3EC28F009C048
:1027100014F0156A166A176A14AE03D015681668A5
:10272000176814C0E6FF15C0E6FF16C0E6FF17C025
:10273000E6FF050EE66E010EE66E56EC20F0196E11
:10274000060EE15E1950DFCF18F018C009F00A0E2E
:102750000E6EF3EC28F005C014F0156A166A176ABD
:1027600014AE03D015681668176814C0E6FF15C0CC
:10277000E6FF16C0E6FF17C0E6FF060EE66E010E86
:10278000E66E56EC20F0196E060EE15E1950350E1D
:10279000E66E4D0EE66E070EE66E010EE66E97ECE7
:1027A00020F0E552E552E552E5520A0E186E0E6E23
:1027B00081C009F0F3EC28F009C014F0156A166A1C
:1027C000176A14AE03D015681668176814C0E6FFC0
:1027D00015C0E6FF16C0E6FF17C0E6FF080EE66E5E
:1027E000010EE66E56EC20F0196E060EE15E1950F1
:1027F00081C009F00A0E0E6EF3EC28F005C014F04B
:10280000156A166A176A14AE03D015681668176839
:1028100014C0E6FF15C0E6FF16C0E6FF17C0E6FFCE
:10282000090E2FD1DFCF14F00C0EE76E1418E8AEAE
:1028300002D0E73402D0E750145C4BE20A0E186E67
:102840000E6EDFCF09F0F3EC28F009C014F0156A22
:10285000166A176A14AE03D015681668176814C094
:10286000E6FF15C0E6FF16C0E6FF17C0E6FF040E40
:10287000E66E010EE66E56EC20F0196E060EE15E75
:102880001950DFCF18F018C009F00A0E0E6EF3ECE5
:1028900028F005C014F0156A166A176A14AE03D042
:1028A00015681668176814C0E6FF15C0E6FF16C065
:1028B000E6FF17C0E6FF050EE66E010EE66E56EC6B
:1028C00020F0196E060EE15E1950320EE66E4D0EC6
:1028D00083D00C0EDF5C33E10A0E186E0E6EDFCF74
:1028E00009F0F3EC28F009C014F0156A166A176AAB
:1028F00014AE03D015681668176814C0E6FF15C03B
:10290000E6FF16C0E6FF17C0E6FF040EE66E010EF6
:10291000E66E56EC20F0196E060EE15E1950DFCF20
:1029200018F018C009F00A0E0E6EF3EC28F005C07E
:1029300014F0156A166A176A14AE39D035D00C0E29
:10294000DF5C186E0A0E196E0E6E18C009F0F3ECFB
:1029500028F009C014F0156A166A176A14AE03D07D
:1029600015681668176814C0E6FF15C0E6FF16C0A4
:10297000E6FF17C0E6FF040EE66E010EE66E56ECAB
:1029800020F01A6E060EE15E1A500C0EDF5C186E17
:10299000096E0A0E0E6EF3EC28F005C014F0156AED
:1029A000166A176A14AE03D015681668176814C043
:1029B000E6FF15C0E6FF16C0E6FF17C0E6FF050EEE
:1029C000E66E010EE66E56EC20F0196E060EE15E24
:1029D00019502F0EE66E4D0EE66E0A0EE66E010ED3
:1029E000E66E97EC20F0E552E552E552E552350EE1
:1029F000E66E4D0EE66E060EE66E010EE66E97EC86
:102A000020F0E552E552E552E5520A0E186E0E6EC0
:102A100081C009F0F3EC28F009C014F0156A166AB9
:102A2000176A14AE03D015681668176814C0E6FF5D
:102A300015C0E6FF16C0E6FF17C0E6FF070EE66EFC
:102A4000010EE66E56EC20F0196E060EE15E19508E
:102A500081C009F00A0E0E6EF3EC28F005C014F0E8
:102A6000156A166A176A14AE03D0156816681768D7
:102A700014C0E6FF15C0E6FF16C0E6FF17C0E6FF6C
:102A8000080EE66E010EE66E56EC20F0186E060E8D
:0E2A9000E15E1850E552E552E7CFD9FF120083
:022A9E008BECBF
:102AA0001AF0FB0EDBCFF3FFDB06F35000090AE060
:102AB000D9EC1AF0FA0E44EC1BF0F3E1151CF1E12D
:102AC000010E01D0000EBAEF1AF08BEC1AF03B0E9B
:102AD000E12402E3E168E652E16E010EDB6A020ED8
:102AE000DB6AF90EDBCFF6FFFA0EDBCFF7FFFB0E4A
:102AF000DBCFF8FF0800F550DF6EDF5002E1DEEFBC
:102B000019F0250EDF5C02E0D1EF19F0030EDB6A4D
:102B1000040EDB6A050EDB6A060EDB6A070EDB6A53
:102B2000F3EC19F02D0EDF5C0CE02B0EDF5C09E0FE
:102B3000200EDF5C06E0230EDF5C03E0300EDF5C7E
:102B40001AE1DF50300A14E0130A0FE0030A0AE02A
:102B50000B0A05E0060AE4E1030EDB80E1D7030E71
:102B6000DB82DED7030EDB84DBD7030EDB86D8D710
:102B7000030EDB88D5D72A0EDF5C1BE1EFEC19F0E2
:102B80003DEC1AF010E0030EDB8008680968130EB4
:102B9000DBCF0DF0140EDBCF0EF060EC29F0040E4D
:102BA00006C0DBFF03D0130E26EC1AF0F3EC19F08D
:102BB0000BD0090EDB6A94EC1AF003E008EC1BF072
:102BC000FAD7090E26EC1AF0030EDBB0DB982E0EB6
:102BD000DF5C1BE1F3EC19F02A0EDF5C0BE1EFEC9C
:102BE00019F03DEC1AF003E1130E78EC1AF0F3EC57
:102BF00019F00BD0090EDB6A94EC1AF003E008EC34
:102C00001BF0FAD7090E78EC1AF0680EDF5C07E1CA
:102C1000F3EC19F0680EDF5C1DE1030E18D0740EA2
:102C2000DF5C17E07A0EDF5C14E0480EDF5C06E044
:102C3000540EDF5C03E05A0EDF5C02E1020E07D0A7
:102C40006C0EDF5C03E06A0EDF5C04E1010ECBEC8E
:102C50001AF0C9DBDF506E0A01E17FD31E0A01E1E1
:102C600092D1200A01E18FD13F0A01E149D11A0A2C
:102C700001E146D10D0A01E143D1200A01E140D131
:102C80003A0A01E13DD1200A01E13AD1260A01E1E7
:102C900035D10D0A01E132D11A0A01E1D9D0200A59
:102CA0004AE0300A1FE0460A0EE0250A01E083D31D
:102CB000D950F90FE96EFF0EDA20EA6E010EEE5ED2
:102CC000000EEE5AEE5AD9EC1AF0250EE66E95DBA0
:102CD00003E1151C01E169D3D5EC1AF001E26BD3D5
:102CE000DB2A69D3080EDB6A040EDB50010806E21A
:102CF000040EDB049DEC1AF0DB508BDB080EDB507E
:102D000009E0030EDB50010B05E172DB01E04DD35E
:102D1000080EDB6A64DBEFCFDFFF4DEC1BF003E155
:102D2000151C01E142D3D5EC1AF001E3DB2A60DB8C
:102D300001E141D33AD3070EDB5002080FE119EC51
:102D40001BF0030EE0EC1AF00E0EEECFDBFF0F0EC1
:102D5000EECFDBFF100EEECFDBFF20D0F70EDBCF88
:102D600017F0F80EDBCF18F0020E175E000E185A9F
:102D7000F70E17C0DBFFF80E18C0DBFF17C0E9FF26
:102D800018C0EAFFD0EC1AF0166A0E0E14C0DBFF72
:102D90000F0E15C0DBFF100E16C0DBFF0E0EDBCFD3
:102DA000E6FF0F0EDBCFE6FF100EDBCFE6FFBAEC3F
:102DB0002AF0E552E552E552130E07C0DBFF140E70
:102DC00008C0DBFF060EDB5005E0130E14EC1BF011
:102DD00001E26ADB38EC1BF002E2130E37DBFBEC9E
:102DE0001AF006E0040E14EC1BF002E2050E2EDBD6
:102DF000030EDBB005D0FCDA01E0D7D2080EDB6AA7
:102E0000090EDB6A0E0EDBCFF6FF0F0EDBCFF7FFEE
:102E1000100EDBCFF8FF0800F550DF6EDF5014E036
:102E20003EEC1BF011E24DEC1BF003E1151C01E13F
:102E3000BCD2BBDB01E3DB2A090EDB2AD9500E0F23
:102E4000E96E000ECBDBE7D7D3DA01E1B4D2ADD225
:102E5000C6DA110EEECFDBFF120EEDCFDBFF110E47
:102E6000DBCFE6FF120EDBCFE6FFACEC2AF0E5523B
:102E7000E552130EF3CFDBFF140EF4CFDBFF060E8B
:102E8000DB5004E0130ED0DB01E20EDB38EC1BF06C
:102E900002E2130EDBDAAFDB05E0040EC5DB02E273
:102EA000050ED4DA030EDBB005D0A2DA01E07DD244
:102EB000080EDB6A090EDB6A110EDBCFE9FF120E8A
:102EC000DBCFEAFFEFCFDFFFDF5014E0D7DB12E20A
:102ED000E4DB03E1151C01E168D267DB01E3DB2AD7
:102EE000090EDB2A110EDB2ADBCFE9FF120EE8E325
:102EF000DB2AE6D77DDA01E15ED257D2030EDB8E04
:102F0000070EDB0410E195DB040E5ADB0A0EEECF50
:102F1000DBFF0B0EEECFDBFF0C0EEECFDBFF0D0E5B
:102F2000EECFDBFF6CD0070EDB5003082CE1030E65
:102F3000DBAE0DD0B2DA020E76DAEFCF14F0156AFE
:102F4000166A176A14AE39D01568166835D0F70EB0
:102F5000DBCF15F0F80EDBCF16F0020E155E000E7B
:102F6000165AF70E15C0DBFFF80E16C0DBFF15C0B2
:102F7000E9FF16C0EAFFEFCF14F00A0E14C0DBFF22
:102F80000B0EDB6A38D0070EDB50020809E1030E96
:102F9000DBAE04D059DB16AE10D00ED055DB0DD011
:102FA000030EDBAE12D079DA020E3DDAF9DA166AD8
:102FB000176A15AE02D016681768E2DA0C0E16C052
:102FC000DBFF0D0E17C0DBFF1AD0F70EDBCF16F0BC
:102FD000F80EDBCF17F0020E165E000E175AF70E32
:102FE00016C0DBFFF80E17C0DBFF16C0E9FF17C0E5
:102FF000EAFFD6DAC5DA0C0EDB6A0D0EDB6A060EC6
:10300000DB5005E1010EF36E050EF3CFDBFF150E6D
:10301000DB6A160EDB6AD950370F146E000EDA2009
:10302000156E390E14C0DBFF3A0E15C0DBFF380EEB
:10303000DB6A080EDB6A0A0EAEDADF50780A12E0AD
:10304000200A10E0280A0CE0200A0AE03F0A06E005
:103050000D0A02E0200A08E1020E05D0080E03D096
:10306000080EDF26100E97DA030EDBBE02D0DB92CD
:10307000DB94DB50800B24E08ADAD890030EEB500F
:10308000000A08E6000EEE5C000EEE58000EEE5848
:10309000000EEE5815E213DA0B680C680D680E6826
:1030A00074EC2AF00A0E02C0DBFF0B0E03C0DBFF3C
:1030B0000C0E04C0DBFF0D0E05C0DBFF2D0E08D08B
:1030C000030EDBA202D02B0E03D0DBA408D0200E0F
:1030D000F36E170EF3CFDBFF150EDB2A02D0170EAF
:1030E000DB6A050EDB5003E1B7D901E189D0040E9C
:1030F000146E570E156E000E166E070EDBCF17F00E
:10310000186A196A1A6A17C00BF018C00CF019C0B7
:103110000DF01AC00EF0D3D9DFEC2AF014500224BF
:10312000F36E15500320F46E16500420F86EF4CFA1
:10313000F7FFF3CFF6FF0800090EF5CFDBFF580EBF
:10314000DF5C0FE1610EF36E090E7BD90AE3200EFE
:10315000146E090EDBCFE7FF1450E75E090EE7CFD0
:10316000DBFF070EDBCF14F0156A166A176A0FDA59
:1031700014C00BF015C00CF016C00DF017C00EF007
:10318000EECF06F0EECF07F0EECF08F0EFCF09F06C
:10319000DFEC2AF009C0EDFF08C0EDFF07C0EDFF2E
:1031A00006C0EFFF390EDBCFE9FFDB063A0EDBCFBF
:1031B000EAFF01E2DB06090EDBCFEFFF150EDB2A8B
:1031C0004BD995E1030EDBA61DD06F0EDF5C06E147
:1031D000C1D918E3150EDB285BDA14D0780EDF5C5A
:1031E00009E0580EDF5C06E0620EDF5C03E0420E91
:1031F000DF5C08E1020EF36E160EF3CFDBFF02D0A8
:10320000150EDB6A030EDB50100B0EE0040EDBCF55
:1032100014F0050EDB50D880145406E2060EDB5085
:1032200003E1040EDB5034DA95D90AE2050EDBCF58
:10323000E7FF150EDB50E75E050EE7CFDBFF02D0A0
:10324000050EDB6A040EDBCF14F0160E45D9D880CC
:10325000145414E2160EDBCFE6FF150EDBCFE6FFAB
:10326000040EDBCFE6FF050EDB50E552E75CE552CE
:10327000D880E754E552D880E7545FD9030EDB507D
:10328000010B0BE1080EDB5008E0B2D801E08DD055
:10329000080EDB50BED8080EDB6A170EDB5007E0C5
:1032A00088D9170EF1D903E1151C01E17ED0160E65
:1032B000DB5016E07ED9300EE66E9FD802E1151C79
:1032C00074E077D9DFCFE6FF32EC2AF0E552E55221
:1032D000E552F4CF15F00001F31C02E1151C65E086
:1032E000050EDBCF14F0160EDB50D880145409E223
:1032F000050EDBCFE7FF160EDB50E75E050EE7CFCE
:10330000DBFF300EE66E050ECBD94FE1390EDB2A1E
:10331000DBCFE9FF3A0E01E3DB2ADBCFEAFF090E40
:10332000EFCFDBFFDB500EE044D9090EADD902E14F
:10333000151C3BE0390EDB2ADBCFE9FF3A0EEDE34B
:10334000DB2AEBD755D831E1160EDBCFE6FF080EAE
:10335000C3D8E552E7245DD82ED0070EDB50030A10
:103360001CE0010A14E0030A07E07BD9DBCFEEFF83
:10337000020EDBCFEDFF1FD0F5D8196A17AE02D0D1
:10338000186819682CD8BCD819C0EEFF14D0EAD838
:1033900017BE186824D8B4D80ED063D9DBCFEFFF9E
:1033A0000AD07BD905E1151C03E1F368F46810D05D
:1033B000FCD801E3DB2A79D97AEF15F0010EDBCFD7
:1033C00014F0020EDBCF15F014C0F3FF15C0F4FFAC
:1033D0003B0EE15C02E2E16AE552E16ECBD029D915
:1033E000020EE0EF1AF061D90800F550DF6E12000E
:1033F000200EE66E080E50EF1BF032EC2AF0E5527C
:10340000E552E552F3CF14F0F4CF15F00001F31CB0
:103410001200146E156AD950010F4DD91450EE26C2
:103420001550ED221200185E000E195AF70E18C042
:10343000DBFFF80E19C0DBFF18C0E9FF19C0EAFF77
:103440001200DBCFF4FFF350F45C1200DB50E76EA8
:10345000040EE7CFDBFF12000A0EDBCF14F00B0ED9
:10346000DBCF15F00C0EDBCF16F00D0EDBCF17F017
:1034700014501510161017101200130EEECFDBFFAC
:10348000140EEDCFDBFF130EDBCF14F0140EDBCFE9
:1034900015F00001800E15141200F70EDBCF18F0A6
:1034A000F80EDBCF19F01200050EDB50E66ED95096
:1034B000130F01D9E552E750EE6EED6A12000A0EC5
:1034C000DBCF06F00B0EDBCF07F00C0EDBCF08F0E6
:1034D0000D0EDBCF09F01200DBCFE6FF150EDBCFC0
:1034E000E6FF050EDB50E552E724E552E724120023
:1034F000DB50CED8010EF36E060EF3CFDBFF1200C9
:10350000EE50EFCFEAFFE96E16C0EEFF17C0EEFFF8
:1035100018C0EEFF1200D9CFE6FFDACFE6FFE1CF09
:10352000D9FFE2CFDAFF1200DFCFE6FFE66A36EC22
:103530002BF0E552E552F3501200E76E080EE7CF8C
:10354000DBFF1200EECF14F0EECF15F0EFCF16F048
:10355000176A1200050EDBCF14F0150EDB50D88071
:1035600014541200010EDBCF16F0020EDBCF17F061
:10357000186A1200E552E5CFDAFFE7CFD9FF120053
:103580000A0E14C0DBFF0B0E15C0DBFF1200D95072
:103590000A0F5BEF1BF0F36E070EF3CFDBFF120099
:1035A000EECF14F0EFCF15F01200010EDB2A020E61
:1035B0001200FC0EDBCFE6FFFD0EDBCFE6FF1200B4
:1035C000145E000E155AF70E14C0DBFFF80E15C07E
:1035D000DBFF14C0E9FF15C0EAFF1200DA20EA6E33
:1035E000EF2AEECFF6FF000EEF22EECFF7FFEF222D
:1035F000EECFF8FF1200040EDBCFE6FF130EDB5018
:10360000E552E75C9ADFDB5004DF060EDB50120068
:10361000090EDB500A0DF350DF24D00FE76E090EC0
:10362000E7CFDBFFF3EF19F0DB50F36E050E21EF70
:103630001AF0F70EDBCF14F0F80EDBCF15F0120006
:10364000DFCFE6FFFDEF19F028DF030EECDEA2EF7F
:103650001AF04FEC15F0E552E552E552E55200093B
:103660001200BDDEEE50EFCFEAFFE96E010E120050
:10367000130EDB50F36E040E21EF1AF0040EDB5034
:10368000F36E090E21EF1AF0DBCFE6FFFDEF19F024
:10369000E76E050EE7CFDBFF12008BDF20EF1BF09C
:1036A000DBCFE6FF86DF29EF1BF0D950F90FE96E7B
:1036B000FF0EEEEF1AF0E96E000EDA20EA6E12004D
:1036C000D9CFE6FFE1CFD9FF040EE126DE6ADD6A3D
:1036D000DECF14F0DDCF15F0FE0EDB50000115AE8D
:1036E00002D0D89003D0145C000E15581DE2020ED3
:1036F000DB6A030EDB6A020EDBCF14F0030EDBCFB6
:1037000015F0D890155004E6010E145C000E155803
:1037100006E2020EDB2A030EEEE3DB2AECD7DF2AF9
:10372000010ED6E3DB2AD4D7040EE15C02E2E16AA3
:10373000E552E16EE552E7CFD9FF1200D9CFE6FF9F
:10374000E1CFD9FF040EE126DE6ADD6ADECF14F098
:10375000DDCF15F0166A176A15AE02D01668176825
:10376000D950FB0FE96EFF0EDA20EA6EEE50145CC2
:10377000EE501558EE501658EE5017581DE2020E36
:10378000DB6A030EDB6A020EDBCF14F0030EDBCF25
:1037900015F0D890155004E6A00E145C000E1558D4
:1037A00006E2020EDB2A030EEEE3DB2AECD7DF2A69
:1037B000010ECCE3DB2ACAD7040EE15C02E2E16A27
:1037C000E552E16EE552E7CFD9FF1200D9CFE6FF0F
:1037D000E1CFD9FF0F0E8116FE0EDB50F00B8112E8
:1037E0008186010EE66EE66AE66AE66AA7DFE552C2
:1037F000E552E552E5528196010EE66EE66AE66A0A
:10380000E66A9CDFE552E552E552E5520F0E81165D
:10381000FE0EDB38F00B81128186010EE66EE66A41
:10382000E66AE66A8BDFE552E552E552E55281969B
:10383000010EE66EE66AE66AE66A80DFE552E55268
:10384000E552E552E552E7CFD9FF1200D9CFE6FFA6
:10385000E1CFD9FFE652030E9316190EE66EE66A23
:10386000E66AE66A6BDFE552E552E552E5520F0E75
:103870008116F80E81160F0E8116300E8112818688
:10388000010EE66EE66AE66AE66A58DFE552E55240
:10389000E552E5528196010EE66EE66AE66AE66A50
:1038A0004DDFE552E552E552E5520F0E8116300E1E
:1038B00081128186010EE66EE66AE66AE66A3EDFFE
:1038C000E552E552E552E5528196010EE66EE66A52
:1038D000E66AE66A33DFE552E552E552E5520F0E3D
:1038E0008116300E81128186010EE66EE66AE66A66
:1038F000E66A24DFE552E552E552E5528196010E73
:10390000E66EE66AE66AE66A19DFE552E552E552D6
:10391000E5520F0E8116818A8186010EE66EE66AF7
:10392000E66AE66A0BDFE552E552E552E55281961A
:10393000010EE66EE66AE66AE66A00DFE552E552E7
:10394000E552E552280EE66E41DFE5520C0EE66EBA
:103950003DDFE552E552E552E7CFD9FF1200D9CF5E
:10396000E6FFE1CFD9FF0F0E8116FE0EDB5081126C
:103970008186010EE66EA4DEE5528196010EE66EAA
:103980009FDEE552E552E7CFD9FF1200D9CFE6FF1F
:10399000E1CFD9FF8194010EE66E92DEE552FE0E74
:1039A000DBCFE6FFDCDFE552FE0EDB38F00BE66E28
:1039B000D6DFE552E552E7CFD9FF1200D9CFE6FFB7
:1039C000E1CFD9FF8184010EE66E7ADEE552FE0E6C
:1039D000DBCFE6FFC4DFE552FE0EDB38F00BE66E10
:1039E000BEDFE5528194E552E7CFD9FF1200D9CF6F
:1039F000E6FFE1CFD9FFFE0EDBCFE6FFDFDFE552CA
:103A0000E552E7CFD9FF1200D9CFE6FFE1CFD9FFCA
:103A1000FD0EDBCFF6FFFE0EDBCFF7FF0800F55003
:103A20000FE0FD0EDBCFF6FFDB2AFE0EDBCFF7FF4C
:103A300001E3DB2A0800F550E66ED9DFE552E8D74E
:103A4000E552E7CFD9FF1200D9CFE6FFE1CFD9FF8A
:103A5000050EE126010EF36EDB6E020EDB6A030E2D
:103A6000DB6A040EDB6ADF6ADFCF14F0156A14BE6E
:103A70001568FB0EDBCF16F0FC0EDBCF17F01550F0
:103A80001718E8AE02D0173404D01650145C175043
:103A900015582DE2FD0EDBCF14F0FE0EDBCF15F036
:103AA000166A176A15AE02D016681768D950010F4A
:103AB000E96EDACFEAFF14C00BF015C00CF016C0A7
:103AC0000DF017C00EF0EECF06F0EECF07F0EECF00
:103AD00008F0EFCF09F074EC2AF005C0EDFF04C048
:103AE000EDFF03C0EDFF02C0EFFFDF2ABDD7010EDF
:103AF000DBCF14F0020EDBCF15F0030EDBCF16F098
:103B0000040EDBCF17F014C006F015C007F016C086
:103B100008F017C009F0050EE15C02E2E16AE55227
:103B2000E16EE552E7CFD9FF1200D9CFE6FFE1CF32
:103B3000D9FF020EE126DF6AFB0EDBCF14F0FC0E8C
:103B4000DBCF15F0FD0EDBCF16F0FE0EDBCF17F04E
:103B5000145015101610171005E1300EE66E47DFF1
:103B6000E552F4D0D950FB0FE96EFF0EDA20EA6E71
:103B7000D890030EEB50000A08E6000EEE5C000E33
:103B8000EE58000EEE58000EEE5815E22D0EE66EC1
:103B90002EDFE552D950FB0FE96EFF0EDA20EA6EF8
:103BA000000EEE6CEF1EEE22EF1EEE22EF1EEF2255
:103BB000ED52ED52ED52DE520A0EDD6E010EDBCFFC
:103BC00014F0000EE76E1418E8AE02D0143403D0DF
:103BD000E750D880145401E3B9D0010EDB04186E0D
:103BE000196A18BE196818C0E6FF19C0E6FF0A0E68
:103BF000E66EE66A29DFE552E552E552E55206C077
:103C000014F007C015F008C016F009C017F006C080
:103C10000BF007C00CF008C00DF009C00EF0FB0E51
:103C2000DBCF06F0FC0EDBCF07F0FD0EDBCF08F09C
:103C3000FE0EDBCF09F0DFEC2AF00650071008106B
:103C4000091041E0010EDF6EDB041C6E1D6A1CBE14
:103C50001D681CC0E6FF1DC0E6FF0A0EE66EE66AA0
:103C6000F3DEE552E552E552E55206C018F007C012
:103C700019F008C01AF009C01BF006C00BF007C00D
:103C80000CF008C00DF009C00EF0FB0EDBCF06F003
:103C9000FC0EDBCF07F0FD0EDBCF08F0FE0EDBCF16
:103CA00009F0DFEC2AF006C014F007C015F008C0D8
:103CB00016F009C017F0300E1426000E1522162239
:103CC0001722145003D0DF5004E0300EE66E8FDE72
:103CD000E552010EDB04186E196A18BE196818C087
:103CE000E6FF19C0E6FF0A0EE66EE66AADDEE552B3
:103CF000E552E552E55206C014F007C015F008C0C1
:103D000016F009C017F0D950FB0FE96EFF0EDA204C
:103D1000EA6E06C00BF007C00CF008C00DF009C039
:103D20000EF0EECF06F0EECF07F0EECF08F0EFCFBB
:103D300009F0DFEC2AF005C0EDFF04C0EDFF03C081
:103D4000EDFF02C0EFFF010EDB0638D7020EE15C8B
:103D500002E2E16AE552E16EE552E7CFD9FF1200D7
:103D6000D9CFE6FFE1CFD9FFE652FE0EDB50010AC4
:103D700004E0010A04E1800E01D0C00EDF6EFD0EEA
:103D8000DB50DF24DF6EDFCFE6FF00DEE552E552D9
:103D9000E552E7CFD9FF1200010EE66EF7DDE552DE
:103DA000E66AE66ADDDFE552E5521200D9CFE6FFAA
:103DB000E1CFD9FFFD0EDBCFE6FFFE0EDBCFE6FF46
:103DC000CFDFE552E552D950F90FE96EFF0EDA2048
:103DD000EA6EEECFE6FFEECFE6FFEECFE6FFEFCFE7
:103DE000E6FFA3DEE552E552E552E552E552E7CFA4
:103DF000D9FF1200D9CFE6FFE1CFD9FFFD0EDBCF0F
:103E0000E6FFFE0EDBCFE6FFABDFE552E552FB0E31
:103E1000DBCFE6FFFC0EDBCFE6FFF6DDE552E55239
:103E2000E552E7CFD9FF1200D9CFE6FFE1CFD9FFA6
:103E3000F7C014F0F8C015F0040ED89014361536FB
:103E4000E806FBE1010E14260F0E152214500001A6
:103E5000F925E96E1550FA21EA6EFE0EDBCFEFFF71
:103E6000F92B000EFA23E552E7CFD9FF1200D9CF84
:103E7000E6FFE1CFD9FFFE0EDB50010B0001F76F2B
:103E8000F86BFD0EDB500F0BF96FFA6BFB0EDBCFFF
:103E9000E9FFFC0EDBCFEAFFEF500EE0FB0EDBCFBD
:103EA000E9FFDB2AFC0EDBCFEAFF01E3DB2AEF5060
:103EB000E66EBADFE552EAD7E552E7CFD9FF120046
:103EC000D9CFE6FFE1CFD9FFE652DF6ADFCF14F0AA
:103ED000100EE76E1418E8AE02D0E73402D0E750B7
:103EE000145C18E2DFCFE9FFEA6AE9BEEA68010E76
:103EF000E9260F0EEA22200EEF6EDFCFE9FFEA6A15
:103F0000E9BEEA68110EE9260F0EEA22200EEF6ED6
:103F1000DF2ADCD7E552E552E7CFD9FF1200D9CF2F
:103F2000E6FFE1CFD9FFE652DF6ADFCF14F0100ED3
:103F3000E76E1418E8AE02D0E73402D0E750145C04
:103F40000DE2DFCFE9FFEA6AE9BEEA68010EE92681
:103F50000F0EEA22200EEF6EDF2AE7D7E552E55278
:103F6000E7CFD9FF1200D9CFE6FFE1CFD9FFE65264
:103F7000E66AE66AF5DEE552E552DF6A100EDF5CBE
:103F80000CE2DF50EA6A010FE96E0F0EEA22EF50F1
:103F9000E66E2DDDE552DF2AF1D7E66A010EE66E08
:103FA000DFDEE552E552DF6A100EDF5C0CE2DF5027
:103FB000EA6A110FE96E0F0EEA22EF50E66E17DD86
:103FC000E552DF2AF1D7E552E552E7CFD9FF1200DB
:103FD000D9CFE6FFE1CFD9FFE6520F010051010A28
:103FE0001BE0010A32E1E66AE66ABADEE552E55212
:103FF000DF6A100EDF5C0CE2DF50EA6A010FE96E47
:104000000F0EEA22EF50E66EF2DCE552DF2AF1D71E
:104010000F01010E006F1AD0E66A010EE66EA0DEF7
:10402000E552E552DF6A100EDF5C0CE2DF50EA6A0F
:10403000110FE96E0F0EEA22EF50E66ED8DCE55262
:10404000DF2AF1D70F01006B01D0006BE552E5527A
:10405000E7CFD9FF1200D9CFE6FFE1CFD9FFFE0E9F
:10406000DB50010B0001F76FF86BFD0EDB500F0BFF
:10407000F96FFA6BF7C014F0F8C015F0040ED89081
:1040800014361536E806FBE1010E14260F0E152234
:1040900014500001F925E96E1550FA21EA6EFC0E64
:1040A000DBCFEFFFE552E7CFD9FF1200D9CFE6FF14
:1040B000E1CFD9FF0F0EE126D950F90FE96EFF0EBF
:1040C000DA20EA6EEECFE6FFEECFE6FFEECFE6FFB8
:1040D000EFCFE6FF3E0E146E4B0E156E166A14C03F
:1040E000E6FFE66E16C0E6FFD9CFE6FFDACFE6FFC1
:1040F0008DEC29F0176E090EE15E1750D9CFE6FF5F
:10410000DACFE6FFFD0EDBCFE6FFFE0EDBCFE6FFEC
:10411000AEDEE552E552E552E5520F0EE15C02E2F9
:10412000E16AE552E16EE552E7CFD9FF1200D9CF3F
:10413000E6FFE1CFD9FFFE0EDB50010B0001F76F68
:10414000F86BFD0EDB500F0BF96FFA6BFB0EDBCF3C
:10415000F6FFFC0EDBCFF7FF0800F5500FE0FB0E7B
:10416000DBCFF6FFDB2AFC0EDBCFF7FF01E3DB2A18
:104170000800F550E66E58DEE552E8D7E552E7CF85
:04418000D9FF120051
:0C418400D9CFE6FFE1CFD9FFD59EFD0E9C
:10419000DBCFD4F0FE0EDBCFD5F0D59C17681868C6
:1041A000196AD4C01AF0D5C01BF01C6A1A50175CEB
:1041B000146E1B501858156E1C501958166E0C6A48
:1041C000010E0D6E0E6A14C007F015C008F016C07F
:1041D00009F033EC29F00350D66E17681868196A95
:1041E000D4C01AF0D5C01BF01C6A1A50175C146EAC
:1041F0001B501858156E1C501958166E0C6A010E7B
:104200000D6E0E6A14C007F015C008F016C009F054
:1042100033EC29F007C014F008C015F009C016F0FF
:104220000750D76ED59AD586F28AF294F184D58E4E
:10423000E552E7CFD9FF1200D59E12001768186823
:10424000196AD4C01AF0D5C01BF01C6A1A50175C4A
:10425000146E1B501858156E1C501958166E0C6AA7
:10426000010E0D6E0E6A14C007F015C008F016C0DE
:1042700009F033EC29F00350D66E17681868196AF4
:10428000D4C01AF0D5C01BF01C6A1A50175C146E0B
:104290001B501858156E1C501958166E0C6A010EDA
:1042A0000D6E0E6A14C007F015C008F016C009F0B4
:1042B00033EC29F007C014F008C015F009C016F05F
:1042C0000750D76ED58E1200D9CFE6FFE1CFD9FFC8
:1042D000CD90FD0EDBCFD6F0FE0EDBCFD7F017680A
:1042E0001868196AD6C01AF0D7C01BF01C6A1A5099
:1042F000175C146E1B501858156E1C501958166E0A
:104300000C6A010E0D6E0E6A14C007F015C008F09D
:1043100016C009F033EC29F00750CF6E1768186803
:10432000196AD6C01AF0D7C01BF01C6A1A50175C65
:10433000146E1B501858156E1C501958166E0C6AC6
:10434000010E0D6E0E6A14C007F015C008F016C0FD
:1043500009F033EC29F003C014F004C015F005C0D7
:1043600016F00350CE6E9D809E909F90CD8ECD8C8A
:10437000CD98CD9ACD96CD92CD80E552E7CFD9FF9D
:10438000120017681868196AD6C01AF0D7C01BF057
:104390001C6A1A50175C146E1B501858156E1C506E
:1043A0001958166E0C6A010E0D6E0E6A14C007F0D5
:1043B00015C008F016C009F033EC29F00750CF6E95
:1043C00017681868196AD6C01AF0D7C01BF01C6AA3
:1043D0001A50175C146E1B501858156E1C50195843
:1043E000166E0C6A010E0D6E0E6A14C007F015C031
:1043F00008F016C009F033EC29F003C014F004C033
:1044000015F005C016F00350CE6ECD801200CD9091
:104410001200D9CFE6FFE1CFD9FFCA94CC6AFE0ED5
:10442000DB500001D86FD96BCB6E9D829E929F921C
:10443000CA90CA92CA84E552E7CFD9FF1200D8C009
:10444000CBFFCA841200CA941200D9CFE6FFE1CF95
:10445000D9FFB190FD0EDBCFDAF0FE0EDBCFDBF043
:1044600017681868196ADAC01AF0DBC01BF01C6AFA
:104470001A50175C146E1B501858156E1C501958A2
:10448000166E0C6A010E0D6E0E6A14C007F015C090
:1044900008F016C009F033EC29F00750B36E176826
:1044A0001868196ADAC01AF0DBC01BF01C6A1A50CF
:1044B000175C146E1B501858156E1C501958166E48
:1044C0000C6A010E0D6E0E6A14C007F015C008F0DC
:1044D00016C009F033EC29F003C014F004C015F045
:1044E00005C016F00350B26EA082A192A292B18EC6
:1044F000B198B19AB192B180E552E7CFD9FF1200DD
:1045000017681868196ADAC01AF0DBC01BF01C6A59
:104510001A50175C146E1B501858156E1C50195801
:10452000166E0C6A010E0D6E0E6A14C007F015C0EF
:1045300008F016C009F033EC29F00350B26E17688A
:104540001868196ADAC01AF0DBC01BF01C6A1A502E
:10455000175C146E1B501858156E1C501958166EA7
:104560000C6A010E0D6E0E6A14C007F015C008F03B
:1045700016C009F033EC29F007C014F008C015F09C
:1045800009C016F00750B36EB1801200B19012004E
:104590000001E42B000EE523EC51E45DED51E559FB
:1045A00004E3E46BE56B010EDC6F12000001E62B07
:1045B000000EE723EE51E65DEF51E75907E3E66BA6
:1045C000E76B010EDD6FF50501E1F42B1200000130
:1045D000E82B000EE923F051E85DF151E95904E3BD
:1045E000E86BE96B010EDE6F12000001EA2B000E92
:1045F000EB23F251EA5DF351EB5904E3EA6BEB6B09
:10460000010EDF6F1200D9CFE6FFE1CFD9FFFD0E1B
:10461000DBCFECF0FE0EDBCFEDF00001E46BE56BE1
:10462000DC6BE552E7CFD9FF1200D9CFE6FFE1CF2F
:10463000D9FFFD0EDBCFEEF0FE0EDBCFEFF0020E6A
:104640000D6E0E6AEEC008F0EFC009F00DEC29F017
:1046500008C0EEF009C0EFF00001E66BE76BDD6B20
:10466000E552E7CFD9FF1200D9CFE6FFE1CFD9FF5E
:10467000FD0EDBCFF2F0FE0EDBCFF3F00A0E0D6E77
:104680000E6AF2C008F0F3C009F00DEC29F008C082
:10469000F2F009C0F3F00001EA6BEB6BDF6BE5525F
:0646A000E7CFD9FF120074
:0A46A6000F0E946E82681200D9CF47
:1046B000E6FFE1CFD9FF040EE126DE6ADD6ADECF38
:1046C00014F0DDCF15F0D890155004E6040E145CFC
:1046D000000E155801E390D0DECFE9FFDDCFEAFFF1
:1046E000CC0EE926000EEA22EF1C826E020EDB6A77
:1046F000030EDB6A020EDBCF14F0030EDBCF15F0E6
:10470000D890155004E6040E145C000E15586EE2A5
:10471000020EDBCFE9FF030EDBCFEAFFD00EE92666
:10472000000EEA22EF5082143FE1DECF18F0DDCF19
:1047300019F0D89018361936D89018361936020E56
:10474000DB501824E96E030EDB501920EA6ED89076
:10475000E936EA36AC0EE926000EEA22EECF16F074
:10476000EFCF17F0010E1626000E1722DECF14F041
:10477000DDCF15F0D89014361536D890143615368E
:10478000020EDB501424E96E030EDB501520EA6E96
:10479000D890E936EA36AC0EE926000EEA2216C0B9
:1047A000EEFF17C0EDFF1BD0DECF14F0DDCF15F00C
:1047B000D89014361536D89014361536020EDB50C4
:1047C0001424E96E030EDB501520EA6ED890E9360A
:1047D000EA36AC0EE926000EEA22EE6AED6A020E17
:1047E000DB2A030E01E286D7DB2A84D7DF2A010EFB
:1047F00001E265D7DB2A63D7040EE15C02E2E16ADD
:10480000E552E16EE552E7CFD9FF1200D9CFE6FFBE
:10481000E1CFD9FF040EE126DE6ADD6ADECF14F0B7
:10482000DDCF15F0D890155004E6040E145C000E90
:10483000155801E3A3D0D9CFE9FFDACFEAFFEE5054
:10484000ED1001E195D0DECFE9FFDDCFEAFFCC0E20
:10485000E926000EEA22EF1C826E020EDB6A030ECE
:10486000DB6A020EDBCF14F0030EDBCF15F0D8901D
:10487000155004E6040E145C000E155801E378D0C0
:10488000D950020FE96EDACFEAFF030EEE1801E10C
:10489000ED5067E0020EDBCFE9FF030EDBCFEAFF4E
:1048A000D00EE926000EEA22EF5082143FE1DECF5F
:1048B00018F0DDCF19F0D89018361936D890183680
:1048C0001936020EDB501824E96E030EDB50192056
:1048D000EA6ED890E936EA36AC0EE926000EEA22F6
:1048E000EECF16F0EFCF17F0010E1626000E1722AE
:1048F000DECF14F0DDCF15F0D89014361536D890F1
:1049000014361536020EDB501424E96E030EDB500C
:104910001520EA6ED890E936EA36AC0EE926000E8C
:10492000EA2216C0EEFF17C0EDFF1BD0DECF14F059
:10493000DDCF15F0D89014361536D89014361536CC
:10494000020EDB501424E96E030EDB501520EA6ED4
:10495000D890E936EA36AC0EE926000EEA22EE6A75
:10496000ED6A020EDB2A030E01E27BD7DB2A79D740
:10497000DF2A010E01E252D7DB2A50D7040EE15C98
:1049800002E2E16AE552E16EE552E7CFD9FF12009B
:10499000D9CFE6FFE1CFD9FF040EE126DE6ADD6A5A
:1049A000DECF14F0DDCF15F0FD0EDBCF16F0FE0EDE
:1049B000DBCF17F015501718E8AE02D0173404D02B
:1049C0001650145C175015581DE2020EDB6A030ED8
:1049D000DB6A020EDBCF14F0030EDBCF15F0D890AC
:1049E000155004E6EE0E145C000E155806E2020E99
:1049F000DB2A030EEEE3DB2AECD7DF2A010ED0E33D
:104A0000DB2ACED7040EE15C02E2E16AE552E16EF8
:104A1000E552E7CFD9FF1200D9CFE6FFE1CFD9FFAA
:104A2000040EE126DE6ADD6ADECF14F0DDCF15F07C
:104A3000D890155004E6040E145C000E155875E26B
:104A4000DECFE9FFDDCFEAFFCC0EE926000EEA2239
:104A5000EF1C826E020EDB6A030EDB6A020EDBCFF6
:104A600014F0030EDBCF15F0D890155004E6040EB9
:104A7000145C000E15584AE2DECF14F0DDCF15F0BD
:104A8000D89014361536D89014361536020EDB50F1
:104A90001424E96E030EDB501520EA6ED890E93637
:104AA000EA36AC0EE926000EEA22EE6AED6A020E44
:104AB000DBCFE9FF030EDBCFEAFFD00EE926000EC5
:104AC000EA22EF5082141CE1DECF14F0DDCF15F0A6
:104AD000D89014361536D89014361536020EDB50A1
:104AE0001424E96E030EDB501520EA6ED890E936E7
:104AF000EA36AC0EE926000EEA22010EEE6EED6AF1
:104B0000020EDB2A030EAAE3DB2AA8D78250816EAD
:104B1000E80EE66E030EE66E3BDFE552E552DF2A55
:104B2000010E01E281D7DB2A7FD7040EE15C02E2AD
:0E4B3000E16AE552E16EE552E7CFD9FF1200CF
:024B3E00256CE4
:104B40006400544F4441592C202D313248005945BE
:104B5000535445524441592C202D31324800544F72
:104B60004441592C202D3135480059455354455264
:104B70004441592C202D31354800382E204E4557C0
:104B800020594F524B2000372E204C4F5320414E7E
:104B900047454C455300544F4441592C202D334830
:104BA000005945535445524441592C202D33480057
:104BB000544F4441592C202D3548005945535445F4
:104BC000524441592C202D354800362E2044554260
:104BD00041492000352E20434149524F00544F4453
:104BE00041592C202D3648005945535445524441D3
:104BF000592C202D364800544F4441592C202D3734
:104C000048005945535445524441592C202D3748AA
:104C100000342E2050415249532000332E204C4F57
:104C20004E444F4E00544F4441592C202B324800E3
:104C3000544F4D4F524F572C202B324800544F4465
:104C400041592C202B344800544F4D4F524F572C74
:104C5000202B344800322E20544F4B594F20003126
:104C60002E205359444E455900322E2032344820CC
:104C70004D4F444500312E20313248204D4F4445A0
:104C80000020202020204953204F5645522000204C
:104C9000202020434F554E54444F574E200053542C
:104CA0004F50200053544152540020434F554E540E
:104CB000444F574E204D4F444520200020202020B7
:104CC00020200020202020414C41524D2121210054
:104CD00020202020004544003154003000202020B6
:104CE000414C41524D204D4F444520202000202072
:104CF000200020200020004F4E20004F4646004458
:104D00004543004E4F56004F435400534550004119
:104D10005547004A554C004A554E004D41590041F7
:104D20005052004D415200464542004A414E00500B
:104D30004D00414D003A0045525200534154004647
:104D40005249005448550057454400545545004DBC
:104D50004F4E0053554E005245433A0030303A30E2
:104D6000303A30303A30300020202053544F5057E2
:104D700041544348202000362E20574F524C4420A7
:104D800054494D4520202000352E2054494D4520C2
:104D90004D4F44452020202000342E20434F554EB7
:104DA00054444F574E202020202000332E205354AF
:104DB0004F5057415443482020202020003C0032CF
:104DC0002E2053455420414C41524D20202020009C
:104DD000312E205345542054494D45202020202079
:014DE00000D2
:014DE10000D1
:0E4DE200D9CFE6FFE1CFD9FF020EE126FE0E8B
:104DF000DB500F0BDF6EFE0EDB380F0B0A0D010EC2
:104E0000F3CFDBFFDB50DF24146E020EE15C02E225
:104E1000E16AE552E16E1450E552E7CFD9FF120086
:104E2000D9CFE6FFE1CFD9FF020EE1260A0E146EBC
:104E30000E6EFE0EDBCF09F074EC2BF00550DF6E2A
:104E40000A0E146E0E6EFE0EDBCF09F074EC2BF022
:104E50000950100D010EF3CFDBFFDB50DF24146E81
:104E6000020EE15C02E2E16AE552E16E1450E552A5
:104E7000E7CFD9FF1200949694981200D9CFE6FF9D
:104E8000E1CFD9FFE652DF6AFE0EDB50DF5C02E2C3
:104E9000DF2AFAD7E552E552E7CFD9FF120082A800
:104EA000000C010C0001FF5102E08288828682988A
:104EB0008296010EFF6F120082988286828800011E
:104EC000FF6B1200D9CFE6FFE1CFD9FF020EE1263A
:104ED000DF6ADFCF14F0080EE76E1418E8AE02D0D8
:104EE000E73402D0E750145C0FE2FE0EDBBE02D0C6
:104EF000829801D0828882868296DB50020DFE0E57
:104F0000F3CFDBFFDF2AE5D794888286C8DFE76E20
:104F1000010EE7CFDBFF82969498DB50146E020EF1
:104F2000E15C02E2E16AE552E16E1450E552E7CF3E
:104F3000D9FF1200D9CFE6FFE1CFD9FF020EE1265B
:104F4000DF6A9488010EDB6ADBCF14F0080EE76E8F
:104F50001418E8AE02D0E73402D0E750145C0BE23C
:104F600082869DDF146EDF50E8241410DF6E829677
:104F7000010EDB2AE9D79498FE0EDB5002E082880E
:104F800001D0829882868296DF50146E020EE15C18
:104F900002E2E16AE552E16E1450E552E7CFD9FF33
:104FA0001200D9CFE6FFE1CFD9FF7CDFD00EE66E4D
:104FB00089DFE552FE0EDBCFE6FF84DFE552FD0E12
:104FC000DBCFE6FF2DDFE552E66E7CDFE55274DFD6
:104FD000E552E7CFD9FF1200D9CFE6FFE1CFD9FFE5
:104FE000E65260DFD00EE66E6DDFE552FE0EDBCFDF
:104FF000E6FF68DFE55256DFD10EE66E63DFE5526D
:10500000010EE66E97DFE552DF6EDFCFE6FFE9DEE9
:10501000E552DF6E51DFDF50E552E552E7CFD9FFB1
:0250200012007C
:0E502200F28ED08EF28C1200F19CF292F28887
:105030001200D8CFE4FFE0CFE4FFE46EDACFE4FF64
:10504000E2CFDAFFE9CFE4FFEACFE4FFF6CFE4FFF7
:10505000F7CFE4FFF5CFE4FFF3CFE4FFF4CFE4FFB5
:10506000FACFE4FF00EE00F0140EE80403E3EECF05
:10507000E4FFFBD700EE14F00A0EE80403E3EECFE2
:10508000E4FFFBD7E652F2A407D01CEC21F0F29427
:105090001EEC21F0C8EC22F09EA007D007EC22F015
:1050A0009E90C1EC21F0D6EC22F0A1A207D0C6EC74
:1050B00022F0A19280EC22F0F5EC22F0F2B2F29212
:1050C0009EBA9E9AE55200EE1DF00A0EE80403E334
:1050D000E5CFEDFFFBD700EE13F0140EE80403E379
:1050E000E5CFEDFFFBD7E5CFFAFFE5CFF4FFE5CF46
:1050F000F3FFE5CFF5FFE5CFF7FFE5CFF6FFE5CF0F
:10510000EAFFE5CFE9FFE5CFDAFFE550E5CFE0FFC5
:10511000E5CFD8FF1000DACFE4FFE2CFDAFFE9CF26
:10512000E4FFEACFE4FFF6CFE4FFF7CFE4FFF5CFEB
:10513000E4FFF3CFE4FFF4CFE4FFFACFE4FF00EEA7
:1051400000F0140EE80403E3EECFE4FFFBD700EE1B
:1051500014F00A0EE80403E3EECFE4FFFBD7E652B7
:10516000F2A407D01CEC21F0F2941EEC21F0C8EC64
:1051700022F09EA007D007EC22F09E90C1EC21F017
:10518000D6EC22F0A1A207D0C6EC22F0A19280ECCE
:1051900022F0F5EC22F0F2B2F2929EBA9E9AE5521B
:1051A00000EE1DF00A0EE80403E3E5CFEDFFFBD7A8
:1051B00000EE13F0140EE80403E3E5CFEDFFFBD798
:1051C000E5CFFAFFE5CFF4FFE5CFF3FFE5CFF5FF3D
:1051D000E5CFF7FFE5CFF6FFE5CFEAFFE5CFE9FF43
:0651E000E5CFDAFF11002B
:0A51E600006A0EAEF9EF28F00E6C1F
:1051F000001E09AEFEEF28F0096C001E74EC2BF0C7
:1052000009BE08EF29F000AE000C096C056C000C1B
:1052100000BE05EF29F00188FF0C006A0EAE16EF04
:1052200029F00D6C0E1EE86A0E22001E09AE1EEF5C
:1052300029F0086C091EE86A0922001E20EC2BF0F8
:1052400009BE2EEF29F000AE000C086C091EE86ABA
:105250000922046C051EE86A0522000C00BE25EF39
:1052600029F00188FF0C006A0EAE3EEF29F00C6CAD
:105270000D1E0E1EE86A0D220E22001E09AE48EF1A
:1052800029F0076C081E091EE86A08220922001E80
:1052900003EC2BF009BE5BEF29F000AE000C076CAD
:1052A000081E091EE86A08220922036C041E051E56
:1052B00004220522000C00BE4FEF29F00188FF0CEC
:1052C00009C013F008C012F008500D02F4CF07F027
:1052D000F3CF06F009500E02F4CF09F0F3CF08F037
:1052E0000D02F3500726F4500822E86A09221250F2
:1052F0000E02F3500726F4500822E86A09220EAE87
:1053000086EF29F01250085E1350095A13AE000CB4
:0A5310000D50085E0E50095A000C03
:06531A00D9CFE6FFDACF57
:10532000E6FFE1CFD9FFE2CFDAFFE652E652E652DE
:10533000E652D950F90F146EFF0EDA20156E020EE8
:1053400014C0DBFF030E15C0DBFF020EDBCFE6FF50
:10535000030EDBCFE6FFF90EDBCFE6FFFA0EDBCF65
:10536000E6FFFB0EDBCFE6FFD950FC0FE66EFF0E2B
:10537000DA20E66E65EC15F0146E070EE15C02E2D1
:10538000E16AE552E16E1450F3CFDEFFF4CFDDFFAA
:10539000FC0EDBCFE9FFFD0EDBCFEAFFEF6ADECFCD
:1053A00014F0DDCF15F014C0F3FF15C0F4FF040EA8
:1053B000E15C02E2E16AE552E16EE552E5CFDAFF37
:0653C000E7CFD9FF120047
:0A53C6001E0EF66E000EF76E000ECC
:1053D000F86E0F010900F550266F0900F550276F90
:1053E00003E1266701D03DD00900F550216F090087
:1053F000F550226F0900F550236F09000900F550A0
:10540000E96E0900F550EA6E090009000900F5503F
:10541000246F0900F550256F09000900F6CF28FF19
:10542000F7CF29FFF8CF2AFF21CFF6FF22CFF7FFD2
:1054300023CFF8FF0F01245302E1255307E00900B1
:10544000F550EE6E2407F8E22507F9D728CFF6FFCE
:1054500029CFF7FF2ACFF8FF0F012607000E275BA1
:04546000BFD71200A0
:0C546400D9CFE6FFDACFE6FFE1CFD9FF99
:10547000E2CFDAFFFB0EDBCF14F0FC0EDBCF15F032
:105480000001800E15141AE1FB0EDBCFE9FFFC0EC4
:10549000DBCFEAFFEECFF3FFEDCFF4FFEE2A000EF5
:1054A000EF22F3CFE9FFF4CFEAFFFD0EDBCFEFFFF2
:1054B000EF50156AF36E15C0F4FF10D0FB0EDB50F1
:1054C000FE0806E1FD0EDBCFE6FF66EC2BF005D013
:1054D000FD0EDBCFE6FF03EC00F0E552E552E5CF31
:0854E000DAFFE7CFD9FF12004B
:0854E80006500B02F3CF02F0A5
:1054F000F4CF03F00C02F3500326000EF420046EE8
:1055000006500D02F3500426000EF420056E0650DE
:105510000E02F350052607500B02F3500326F450F9
:105520000422000E052207500C02F3500426F4500A
:10553000052207500D02F350052608500B02F350C8
:105540000426F450052208500C02F3500526095099
:085550000B02F35005261200C6
:08555800FE0EE3CFE9FFFF0E98
:10556000E3CFEAFFF36AF46AEE5203E0F34AF42A67
:10557000FBD71200FF0EE3CFF8FFE552FF0EE3CF9B
:10558000F7FFE552FF0EE3CFF6FFE552E66AE66A63
:10559000E66A0900F55209E0FD0EE32A05E1FE0E78
:1055A000E32A02E1FF0EE32AF4D7FD0EE3CF07F072
:0E55B000FE0EE3CF08F0FF0EE3CF09F012006D
:0255BE00056A7C
:1055C000046A036A026A200EE76ED8900636073630
:1055D0000836093602360336043605360B50025CAF
:1055E0000C5003580D5004580E50055809E30B5049
:1055F000025E0C50035A0D50045A0E50055A062AEA
:06560000E72EE4D71200C2
:0A560600056A046A036A180EE76ED5
:10561000D8900736083609360336043605360C505E
:10562000035C0D5004580E50055807E30C50035E00
:105630000D50045A0E50055A072AE72EEAD71200D9
:10564000056A046A100EE76ED890083609360436EB
:1056500005360D50045C0E50055805E30D50045EF0
:0C5660000E50055A082AE72EF0D7120061
:04566C00F36AF46A7F
:10567000FF0EE124E96EFF0EE220EA6EED6607D030
:105680002F0EEF6404D03A0EEF6001D0F32A12001F
:10569000800EF36E00EE00F00F0E01D81200EA60EB
:1056A00002D0EE6AFCD7F350E9601200EE6AFCD734
:1056B0001EEE00F02EEE00F0F86A019CE3EC29F0FB
:0C56C00007EC00F034EC00F0FBD7120007
:0456CC00FF0EE3509A
:1056D000ACBA04D0AF6AAB8EAC8A949CACA2FED7B5
:0856E000AD6EF36EF46A1200D6
:0856E800056A080EE76ED89078
:1056F000093605360E50055C02E3056E092AE72ED1
:04570000F7D71200C5
:0C570400303132333435363738396162C9
:05571000636465660002
:0B571500000000000000000000000089
:105720000000000000000000000000000001000177
:0857300000010001000002016C
:08573800000000000000000069
:10574000000007010011FF001107FF00000000002A
:105750000000000000000000000000000000000049
:045760000000000045
:0C576400002020202020202020202020D9
:105770002020202020202020202020202020202029
:05578000202020202084
:0B578500000000000000000000000019
:105790000000000000000000000000000000000009
:0D57A00000000000001020408001020408FD
:020000040030CA
:0100010002FC
:0100020003FA
:010003001EDE
:010005008179
:010006008178
:010008000FE8
:01000900C036
:01000A000FE6
:01000B00E014
:01000C000FE4
:01000D0040B2
:00000001FF
